:020000020000FC
:0200000006C038
:0200040063C0D7
:02000800BBC07B
:10000C00CBC018E01EBF1FE51DBF8E98929AD79AE1
:10001C00939AD69A929AD59AD09A8F9A889A899AC4
:10002C008C9A8D9AD19AD29AD39A1FEF14BBDB98E3
:10003C00D7D008E30CD1D4D00EE009D1D1D001E057
:10004C0006D1CED006E003D1CBD004E408D1C8D081
:10005C0009E405D1C5D003E502D1C2D004E5FFD037
:10006C00BFD001E4FCD0BCD00EE4F9D0B9D003E48D
:10007C00F6D0B6D005E4F3D0B3D00AE3F0D0B0D0CC
:10008C00E0E0EBBDE9BDE1EAEFBDE1E0EEBD2FE75D
:10009C009098919A239528BD2ABD12E015BF10E4C3
:1000AC001BBF7894DF9800000000DF9A88D0DF989F
:1000BC0010E012BF12E013BF9AD02F3F59F7EDCFCB
:1000CC00A0E030E033BF38B730FD42C002B758E093
:1000DC00AAD009E8BCD084D0062FACD0C0D00091F7
:1000EC001002BDD020E02ABD28BDD89A87D0D89860
:1000FC0085D098E095BF90E89BBF7894DE9800007F
:10010C000000DE9A5CD0DE9810E014BD12E015BD44
:10011C006ED0A13061F190E094BF90E29BBF7894D7
:10012C00DD9800000000DD9A4AD0DD9810E014BD87
:10013C0012E015BD5CD0A130D1F0869B06C0909A20
:10014C009198CFE7CABDC8BD60D0A03091F20FC066
:10015C00979A54D0979852D031E038BF09E877D0AD
:10016C003FD00DE27CD03CD00DE279D039D09098C4
:10017C00919A189530E035BD38B736FF09C030E498
:10018C0038BF2FE728BD41D020E028BDA1E000C03A
:10019C002FE32ABD28BD189530E035BD38BD38B7E2
:1001AC0036FF09C030E438BF2FE72ABD2ED020E03F
:1001BC002ABDA1E000C02FE32ABD28BD1895000080
:1001CC0000000895FF93F5E0FADFFA95E9F7FF9147
:1001DC000895FF93FAE0F3DFFA95E9F7FF9108959C
:1001EC00FF93F4E1F6DFFA95E9F7FF910895FF9399
:1001FC00F2E0F6DFFA95E9F7FF910895FF93FAEF35
:10020C00EFDFFA95E9F7FF910895FF93F2E0F6DF3F
:10021C00FA95E9F7FF910895FF93F4E0EFDFFA9573
:10022C00E9F7FF91089560E06395051BE8F76A957F
:10023C00050F0895A0E1B2E05AE0F5DF00630D93DD
:10024C00062FF1DF00630D9360636D93089505BB7A
:10025C00D998DA98DB9AB3DFDB98BBDF089505BB3E
:0E026C00D99ADA98DB9AABDFDB98B3DF0895FE
:00000001FF
